:1000000000000320D1010000494B0000154B000007
:10001000154B0000154B0000154B0000154B000060
:10002000154B0000154B0000154B0000494B00001C
:10003000494B0000154B00009D6D0000616E0000F3
:10004000494B0000494B0000494B0000494B000060
:10005000494B0000494B0000494B0000494B000050
:10006000494B0000494B0000494B0000494B000040
:10007000494B0000494B0000494B0000494B000030
:10008000494B0000494B0000494B0000494B000020
:10009000494B0000494B0000494B0000494B000010
:1000A00025AB000031AB0000494B0000494B00007C
:1000B000494B0000494B0000494B0000055200002D
:1000C000494B000021530000494B00003D54000003
:1000D000494B000029550000494B0000494B0000E6
:1000E000494B0000494B0000494B00005598000067
:1000F000FDA40000E1980000494B0000494B0000BE
:10010000C56E0000D96E0000ED6E0000016F0000AA
:1001100079A30000095A0000494B0000494B000038
:10012000494B0000494B000055910000494B00002D
:10013000494B0000494B0000494B0000494B00006F
:10014000FD6B0000494B000015560000494B0000B4
:10015000494B0000494B0000494B0000494B00004F
:10016000494B0000494B00003DAB0000494B0000EB
:10017000494B0000494B0000494B0000494B00002F
:10018000494B0000ADAD0000494B0000494B000059
:10019000494B0000494B000001570000494B00004B
:1001A000494B0000494B0000494B0000494B0000FF
:1001B000494B0000494B0000494B0000494B0000EF
:1001C000494B0000494B0000494B0000494B0000DF
:1001D0005C4B4CF2205210B51A804DF628121A8052
:1001E00000BF00BF04F0B4FC574B4FF030621A6000
:1001F000564A9A60564ADA60564B4FF470021A60BB
:10020000554B564A1A60564B1A78110748BF1A7850
:10021000544944BF42F008021A70534BAA221A7084
:10022000524A534B8B4204D252F8040F43F8040B4A
:10023000F8E7504B504A0021934202D243F8041B86
:10024000FAE74E4A4E48002350F8231042F8231094
:100250000133742BF8D14B4B4B4A802103F8011B1F
:100260009342FBD1494B454A1A60494B8A221A7086
:10027000A3F5805324225A70A0221A709A7992070B
:10028000FCD59A79D406FCD4424A937903F00C0346
:10029000082BFAD1404B60221A70404A1378802B09
:1002A000FCD13C4B01221A715D225A719A79900659
:1002B000FCD59979374A4906FBD5394B394919603C
:1002C0000021596020231370937903F00C030C2B49
:1002D000FAD1354B354A1A60354A364C136813F457
:1002E000807302BF23604FF4A8531360324B334A2C
:1002F0001A6000225A60072243F8042C304AC3F8DF
:100300000C2D62B604F0E2FD2368DA0705D52D480E
:1003100004F0E6FC2C4B2D4A1A602D4B1B785B0633
:1003200009D5294C294B22689A4204D1254804F06A
:10033000D7FC002323600DF01BFE04F00FFC06F039
:100340005EFFFEE70E20054030800440823F04003F
:100350000100002B88ED00E0002008E0030000858C
:1003600002D007405819FF1F00E007400CF20100BF
:100370003012FF1F5819FF1F68CEFF1F000CFF1F10
:100380000000000000E400E064E400E008ED00E0AC
:10039000005006400040064001E0074003E00740EF
:1003A000448004400000060204800440C01007009E
:1003B00010D0034014D0034014E000E01FBF02003F
:1003C00000002020000000001CE00340A5C3945A58
:1003D00000F00740FFFFFFFFFFFFFFFFFFFFFFFFF2
:1003E000FFFFFFFFFFFFFFFFFFFFFFFFFFFFFFFF1D
:1003F000FFFFFFFFFFFFFFFFFFFFFFFFFFFFFFFF0D
:10040000FFFFFFFFFFFFFFFFFFFFFFFFDEF9FFFF23
:1004100010B5054C237833B9044B13B10448AFF33E
:1004200000800123237010BD5819FF1F0000000039
:1004300010F20100084B10B51BB108490848AFF392
:1004400000800848036803B910BD074B002BFBD0A0
:10045000BDE81040184700BF000000005C19FF1FF6
:1004600010F201005819FF1F000000000020704723
:100470007047FFFF074A138803EB432003EB80001C
:1004800000F55850193080B2108000EB1020C0B237
:10049000704700BFDC16FF1F08B50146FFF7EAFFF3
:1004A0004843C0F3072008BD064A138803EB4321E5
:1004B00003EB810303F5585319339BB25843138060
:1004C000000C7047DC16FF1FC0F3CA03410442BF93
:1004D000C3F5FF6307339BB2190A084A10B5545C91
:1004E000C3F34602064B33F8113004FB02339BB2D0
:1004F000020452BF18B2584200B210BDE4E300003B
:10050000ECE300004069704713B5002302688DF8E2
:1005100000308DF801308DF8023014688DF8043009
:100520008DF805308DF806300A4601AB6946A047C4
:1005300002B010BD0020704770477047024A002388
:100540001380024A137070472C6CFF1F5613FF1F55
:10055000054A00231380054A1370054A642111706F
:10056000044A1370704700BF2C6CFF1F5D14FF1FFF
:10057000ECC8FF1F5613FF1F014B00221A70704773
:100580005613FF1F044A01231370044A1370044BCF
:1005900000221A80704700BF5613FF1F5C14FF1F14
:1005A0002C6CFF1F014B32221A8070472C6CFF1FEE
:1005B000014B00221A8070472C6CFF1F014B002258
:1005C0001A7070475613FF1F024A00231380024A15
:1005D000137070472C6CFF1F5613FF1F044A002333
:1005E0001370044ADC211170034A1370704700BF76
:1005F0005613FF1FECC8FF1F5D14FF1F0F4A104961
:1006000010480023F0B513800F4A104D13700122DB
:100610000A700F490F4F0B700F490A700F490024E1
:100620004FF07F5647F8232001331E2B45F8044B2B
:1006300040F8044B41F8046BF4D1F0BD2C6CFF1F63
:100640005413FF1FB4C2FF1F5613FF1F6433FF1F55
:100650005D14FF1F1470FF1F441BFF1F8431FF1F19
:10066000034B0A221A80034B00221A70704700BF06
:100670002C6CFF1F5613FF1F024A00231380024AEF
:10068000137070472C6CFF1F5613FF1F024A002384
:100690001380024A137070472C6CFF1F5613FF1F04
:1006A000014B00221A7070475613FF1F014B0022A6
:1006B0001A8070472C6CFF1F024A00231380024AE5
:1006C000137070472C6CFF1F5613FF1F7047406953
:1006D000800070474FF4C87070474FF4C87070477F
:1006E0007047FFFF10B501210446142004F036FBCB
:1006F0002023A361014BE36110BD00BFC0F00F4098
:1007000010B501210446082004F028FB0121072030
:1007100004F024FB01210E2004F020FB0121022023
:1007200004F01CFB0123A361014BE36110BD00BF7A
:10073000C0F00F4038B505460C4604F091FB2B8BFA
:10074000C01A80B2B0F5FA6FF7D3A368002B3BDD77
:100750002368187818B1237B80FA53F0C0B2A37CC9
:1007600003FB0000001204F0EDFC2368587818B178
:10077000637B80FA53F0C0B2E37C03FB00000012FD
:1007800004F0E0FC2368987818B1A37B80FA53F05A
:10079000C0B2237D03FB0000001204F0D3FC2268EA
:1007A00094F9153013442360A368227B013BA360B6
:1007B000E37B9B1A2373627B237C9B1A6373A27B6C
:1007C000637C9B1AA373C0E704F04AFB288338BDFF
:1007D00010B5044606F0C5F9204610BD10B5044B0F
:1007E000044640F8103B08F063F8204610BD00BFF7
:1007F00020E2000037B50C4B1B6801931446019AA8
:100800004FF48C7353435843000C0D46FFF75CFEC6
:10081000641BA0F50040A4B280B204FB000005EB0D
:10082000104080B203B030BD68C3FF1F2DE9F04F08
:10083000454FDFF828813B78013387B003F001038F
:10084000FA22DC2157203B70FFF7D4FFE022C3B22D
:10085000602140F255100093FFF7CCFF4FF4205277
:100860005FFA80F94FF4C851CB20FFF7C3FF3C2259
:10087000172182469320FFF7BDFF344B01930646B4
:1008800040F6B832012171201D88FFF7B3FF304ACE
:10089000304912680592059A0C8892B2141BA4B2D2
:1008A0000A80F6B2B8F8002016FB04F61644834618
:1008B000092205214FF4C870A8F80060FFF79AFFDD
:1008C000019BB8F800601A8897F8008000FB0420AC
:1008D000C8F56F7403341880A4B26FEA0907564450
:1008E000B6B23046FFF7F0FDA0F5004080B24043BD
:1008F000030C5D4409FB03F3ADB207EB1343642221
:1009000083FA52F32A0A8DF8102003A99DF80020DB
:100910008DF8112004A88DF8123008F07BFE0E4BE4
:1009200004EB440008F10208402203A918441FFA0E
:1009300088F808F0B6FD023CB8F5707FA4B2CED3BB
:1009400007B0BDE8F08F00BF2D1AFF1F2E1AFF1F42
:1009500068C3FF1F301AFF1F8D70FF1F321AFF1F61
:10096000034B82B01B680193019B036002B0704788
:1009700068C3FF1F10B50446006808B106F049FCC3
:10098000204610BD084B82B01B680193FF28019AD6
:1009900098BF00024FF48C7398BF80B25343584302
:1009A000000E02B0704700BF68C3FF1F38B5FFF7E5
:1009B000E9FF00F0400303F0FF0413B1C343DBB2CF
:1009C00000E0034603F03F0203F00F0304B10133DC
:1009D0000C4C12115200A518A25C6D7815FB03F3A4
:1009E00002EB2313DBB2020648BF5B425BB2C84393
:1009F000803BC2B2D8B202FB000001EB2020C0B2A3
:100A000038BD00BFDCE30000F7B500242A4D2746BF
:100A1000C82304F121018DF805302944502301A891
:100A2000033C8DF804708DF8063008F0F3FD14F1E6
:100A30000F0F214EECD10024254600210320FFF7A3
:100A4000B5FF2844C7B200210A20FFF7AFFFFA2301
:100A50008DF80530C42310FB03F0001205308DF82B
:100A60000600311901A803348DF804701E3508F012
:100A7000D1FD122CEDB2E0D1192207210F480F4E03
:100A800008F0EBFC0024254600210A20FFF78EFF2A
:100A9000C82328448DF804008DF805303119FF2350
:100AA00001A803348DF806301E3508F0B3FD152C6F
:100AB000EDB2E9D103B0F0BD1C7CFF1F4C33FF1F2A
:100AC00070B5044608460D460DF072FB23680246D9
:100AD000294620465B68BDE87040184708B5FFF717
:100AE000EFFF08BD00230A2206F038BA38B50546E4
:100AF000FFF7E6FF0446284606F020FA204438BDFA
:100B00002DE9FF410546C5F38D04A6B27049714831
:100B1000FFF7E4FF31466F4806F05BFA6E4B9A5DD3
:100B2000002A31D06D4F6E496A48FFF7D7FFB95D93
:100B30006848FFF7D7FFBB5D05F003056BB1022DD9
:100B400019D1684D684C2B68009354F82630009AF0
:100B500003F57A73934275D30DE0032D0BD1614DEC
:100B6000614A2B68029352F82630029903F57A7392
:100B70008B42904672D35D495648FFF7AFFFB95D8F
:100B80005448FFF7AFFF98E005F00305032D52D15D
:100B9000574807F0C2FF24B2FF28CBBF2302C4EBA3
:100BA0000424441C94FBF0F4C8BF93FBF4F402A9A2
:100BB000F02303A88DF80D308DF80E308DF80C4021
:100BC00008F028FD9DF80A209DF809109DF80800FE
:100BD00007F09EFF31460246454807F049FF0F2EB9
:100BE0006BD8DFE806F0080A0C6A0E10126A1416B9
:100BF00018221A1C1F26002212E0022210E00422F2
:100C00000EE008220CE00A220AE00C2208E00D2285
:100C100006E00E2204E00F2202E0102200E0122281
:100C2000344B04E00122344B01E0FF22334B1A70B5
:100C300043E00122FAE7022D3FD131462C4807F06C
:100C400017FF3AE0002231462948BA5507F010FF55
:100C50002B680193019B44F826308CE7012324483C
:100C6000BB5507F05AFFFF2824B204DD2302441CC1
:100C700093FBF4F403E0C4EB042494FBF0F4F023BE
:100C800001A903A88DF80D308DF80E308DF80C40B9
:100C900008F0C0FC9DF806209DF805109DF80400A2
:100CA00007F036FF31460246114807F0E1FE2B6897
:100CB0000393039B48F826305DE711490548FFF789
:100CC00015FF0B4807F05DFE002004B0BDE8F08181
:100CD000FCE30000CC16FF1F4C14FF1FE47BFF1F3A
:100CE00005E4000068C3FF1F1413FF1F10E4000099
:100CF000006FFF1F5513FF1FDC7BFF1F8C70FF1F52
:100D00003EE4000038B5054606F063F9044628467F
:100D100006F014F9204438BD034B82B01B680193E0
:100D2000019B036002B0704768C3FF1F044B00685B
:100D30001B6882B00193019B181A02B0704700BF74
:100D400068C3FF1F044B82B01B680193019B591AB3
:100D5000016002B0704700BF68C3FF1F13B51F4C8E
:100D60002368DB0709D4204603F011FF28B11C4893
:100D7000FFF7D2FF204603F00FFF1948FFF7D6FF19
:100D8000012828D900211648FFF7DCFF0720FFF7CC
:100D900083FB144B1B680193044601984FF4AF2367
:100DA0005843000CFFF790FBC4EB041100EB41002B
:100DB00000F0FF010A20FFF7E5FD8DF800100A4959
:100DC0008DF8010004EB4404FF23214468468DF8AC
:100DD000023008F01FFC02B010BD00BFC41AFF1F94
:100DE000C81AFF1F68C3FF1F4C33FF1F0F4B036060
:100DF0000023417202610372C3601946427A934232
:100E000004DA026942F823100133F7E7084A13684D
:100E10000BB9106004E05A690AB11346FBE7586148
:100E2000002343618380C38083727047F4E1000034
:100E300054C7FF1F914282BF0B4611461A46B1F5B7
:100E4000007F10B513D240F2FF139A4200EB41002D
:100E500028BF1A4616300023013130F8024F914264
:100E60002344F9D900EE103ABBEEC90A10BD9FED3C
:100E7000010A10BD0000000007B5094B01681B689E
:100E80000193019B42685B1A9A4294BF012200229F
:100E900001D8FFF765FD104603B05DF804FB00BF05
:100EA00068C3FF1F0B7802789A4238BF03704B78F3
:100EB00042789A4238BF43708B7882789A4238BF22
:100EC000837070472DE9FF41294C2368DB070CD460
:100ED000204603F05CFE40B1264B1B680293264B74
:100EE000029A1A60204603F057FE2348FFF71EFFC0
:100EF000132839D900212048DFF878801F4EFFF7EA
:100F000021FF0A224FF470711C4808F0A6FA002451
:100F10004FF48C77D8F800300393039BE01C000259
:100F20007B4380B25843000CFFF7CEFA63018DF883
:100F30000430C82305468DF805306946FF2301A813
:100F40008DF8063008F066FBA5F5004040F2C1338D
:100F500080B25843000C00EB400069463044013435
:100F6000FFF7A0FF082CD5D104B0BDE8F08100BF89
:100F7000241AFF1F68C3FF1F281AFF1F8D70FF1F51
:100F80000C4B0360FF23037343738373C3730374B6
:100F9000437401238374084B0022426042618260E3
:100FA0001A6802B91860054B1A6802B1906018609F
:100FB000704700BF00E20000FCC8FF1F0CC9FF1F04
:100FC00030B50439034600F1300451F8042F9A700B
:100FD000150C1D70150A5D700333A342F5D130BDA9
:100FE00037B5274B0446002501AA102164301D8027
:100FF0008DF804508DF805508DF8065008F008FA69
:101000008023A3716423E37195232372ED2363721C
:101010004B2323748223A374C723E374FF22152375
:10102000237584F8222084F82420852320226375E8
:1010300084F828208A23B222A37584F829202B2340
:10104000AA22E37584F82A20E2234822237684F832
:101050002B208B233D22257165716574E57784F81B
:10106000205084F8213084F8235084F82C2084F810
:101070002D30044904F13400FFF7A2FF03B030BD66
:101080002C6CFF1F98F10000017808F061B9037B18
:10109000026913B18368591A01390368194401EBD5
:1010A000410010447047FFFF2DE9F74F3A4C236889
:1010B000DB0709D4204603F06AFD28B13748FFF763
:1010C0002BFE204603F068FD3448FFF72FFE002179
:1010D00004461E20FFF76AFC844259D300212F48A2
:1010E000FFF730FE2E4A1378022B4FF0000110D983
:1010F0000A201170FFF75AFCB4238DF804008DF814
:1011000005306946C82301A88DF8063008F082FA38
:1011100007E0013313708DF800108DF801108DF881
:10112000021000211F48DFF87CA0DFF87CB0FFF739
:10113000AEFF9DF8003003709DF8013043709DF8BC
:10114000023083703B256E1E31461648FFF79FFF25
:1011500090F8009090F801808778002429460AEBE7
:101160000400FFF794FF294680F8009080F8018082
:1011700087700BEB0400FFF78AFF1434782C80F89B
:10118000009080F801808770E8D13546002EDAD1D2
:1011900003B0BDE8F08F00BFF819FF1FFC19FF1F57
:1011A000F419FF1FB832FF1F306CFF1F2DE9F84FF5
:1011B0002E4C2368DB0709D4204603F0E8FC28B155
:1011C0002B48FFF7A9FD204603F0E6FC2848FFF76F
:1011D000ADFD132848D900212548DFF89CA0DFF891
:1011E0009CB0FFF7AFFD234A23481378042B4FF040
:1011F000000498BF01334FF01E018ABF14701370B2
:10120000FF24FFF744FF00254570857004701D2101
:101210001948FFF73CFF4570857004703B256E1E32
:1012200031461548FFF733FF90F8009090F80180A1
:101230008778002429460AEB0400FFF728FF294697
:1012400080F8009080F8018087700BEB0400FFF7B6
:101250001EFF1434782C80F8009080F8018087708D
:10126000E8D11E2E3546DAD1BDE8F88F3C1BFF1FB2
:10127000401BFF1F391BFF1FB832FF1F306CFF1FC1
:101280002DE9F74F044646224FF470715448554DEE
:10129000554F08F0E2F804F190086268A36813441F
:1012A0003A2B01DC63600CE03B2363604FF0FF33BB
:1012B000A360E3680621033393FBF1F201FB1233D1
:1012C000E3606368002B0EDC002363600123A360EE
:1012D000E3680621033B93FBF1F201FB1233002B81
:1012E000B8BF5B42E360414BE06861684FF0140BAC
:1012F0000BFB0030FFF7CBFEC8262A688DF80020D4
:1013000081464FF0FF0A01A968468DF801608DF80B
:1013100002A008F07FF901A94846FFF7C3FDE06885
:1013200061680BFB0070FFF7B2FE2B688DF8003090
:10133000834601A968468DF801608DF802A008F087
:1013400069F901A95846FFF7ADFD2B680C3401334C
:1013500044452B60A1D1264C264F20682369218962
:1013600000EB400018440A2208F077F83B6813F0BD
:10137000010F25460BD1384603F009FC38B11E4A4F
:101380001046FFF7EDFA3846566003F005FC1A48A0
:10139000FFF772FD00B30024AB68A3421CDD2146B9
:1013A0001348FFF774FE002106460A20FFF7FEFAF5
:1013B000E62300EB44008DF804008DF80530694603
:1013C000DC2301A88DF8063008F024F96946304680
:1013D000FFF768FD0134DFE703B0BDE8F08F00BF21
:1013E0008D70FF1FCC19FF1F306CFF1FB832FF1F1D
:1013F000706FFF1FC019FF1FC419FF1F037B10B5BB
:10140000046913B18368591A0139036810781944C3
:1014100001EB4101631860545178597092789A70C9
:1014200010BDFFFF2DE9F04F0021054685B00220D9
:10143000FFF7BCFA04461E20FFF7A4FA020644BFD9
:10144000C043C0B24000C0B2411C01FB00F2101208
:1014500000EB400348430012A3EB400080B2C305F9
:1014600054BFC0B2FF2005F16406009005F13401BD
:10147000281D1023324608F04FF8DFF82CA1DFF8C2
:101480002CB100254FEA45085FFA88F800270021B3
:101490000720FFF78BFA4FF0010900EB0802234603
:1014A000D2B2314603A8CDF8009008F05EF803AA46
:1014B0000AEB07002946FFF7A1FF00210720FFF7ED
:1014C00075FA00EB08022346D2B2314603A8CDF8E4
:1014D000009008F04AF80BEB070003AAC5F13B01A6
:1014E0001437FFF78BFF782FD1D14D443C2DC9D154
:1014F000E4430025E4B20A20FFF744FA012700EB99
:1015000085022346D2B2314603A8009708F02DF891
:10151000294603AA21483D44FFF770FF4D2DEAD12B
:101520001F4D00240420FFF72DFA0219FF23009716
:10153000D2B2314603A808F018F814349DF80C30E4
:1015400005F8013CE4B29DF80D302B708C2C9DF811
:101550000E306B7005F10305E4D1124D0024012714
:101560000420FFF70FFA0219FF230097D2B2314689
:1015700003A807F0FAFF14349DF80C3005F8013C7D
:10158000E4B29DF80D302B708C2C9DF80E306B70F2
:1015900005F10305E4D105B0BDE8F08F706FFF1FC2
:1015A0001D7CFF1F4D33FF1F306CFF1FB832FF1F24
:1015B0002DE9F0431E4BDFF880901C78651CEDB2DE
:1015C00085B01D7000264FF0000899F80030009398
:1015D0002A46FF231749184F03A807F0C6FF1748EC
:1015E00003AA4044314608F11408FFF707FFB8F199
:1015F000780FEAD1013603353C2EEDB2E3D14B3CF6
:10160000E4B2002502343B780093E4B2FF23224683
:10161000084903A807F0A9FF294603AA084801358D
:10162000FFF7ECFE4D2DEDD105B0BDE8F08300BF16
:10163000381BFF1FA86EFF1FD67BFF1FB832FF1F8E
:10164000706FFF1F70B5036803EB43024468A34249
:101650000ADA05690E78AE54AC184D7865708D784D
:10166000A57001330332F1E770BDFFFF2DE9F743A9
:10167000DFF854814F4B504CB8F8081022780746D9
:10168000D8F8000000EB4000184407F0E6FE22788E
:101690004A48072107F0E1FE0437227848480C2128
:1016A00007F0DBFE3846FFF741FBB0F57A7F2646B0
:1016B00005D83846FFF73AFBC8283FD876E0002126
:1016C0003846FFF73FFB0F2323603E4B01221A6091
:1016D0000024C82301A96846FF258DF802308DF843
:1016E00000408DF8015007F095FF404601A9FFF733
:1016F000A9FFDFF8C880A14608EB040101A8033464
:101700008DF804908DF805508DF8065007F082FF93
:10171000152CF1D10024DFF8A880A146FF2508EBA5
:10172000040101A803348DF804908DF805508DF85C
:10173000065007F06FFF242CF1D1BAE7214B1A684D
:10174000012A33D100240A221C606946C82301A85B
:10175000FF2532608DF806308DF804408DF8055075
:1017600007F058FF69461848144EFFF76BFF2746ED
:10177000311901A803348DF804708DF805508DF8E7
:10178000065007F047FF152CF2D100240C4E2746D7
:10179000FF25311901A803348DF804708DF8055028
:1017A0008DF8065007F036FF242CF2D103B0BDE8C7
:1017B000F08300BF8D70FF1F1013FF1F4C33FF1FFE
:1017C0001C7CFF1F0C1AFF1F706FFF1F038882888D
:1017D00010B593422CBF9A1AD21A01F1010135BFFC
:1017E00094B292B201FB04F001FB02F034BF03EBB0
:1017F0002023A3EB202398B210BD9142F8B50446F4
:1018000016461D4605D28A42134638BF0B460E4681
:1018100019462046FFF7DAFF314607462046FFF714
:10182000D5FF00EB4003B8421CDA227B266995F80D
:1018300000E06AB122686168821A8A1A02EB4202E9
:10184000B11806F802E06A784A70AA788A7006E051
:1018500006F803E0F21869785170A97891700130A8
:101860000333E0E7F8BD2DE9F34106468846154607
:101870000024142773689C4211DA2B7830688DF8A5
:1018800004306B788DF8053007FB0400AB788DF8D9
:10189000063001AA4146FFF7B1FD0134EAE702B084
:1018A000BDE8F0812DE9F7430646884691461D467E
:1018B0000024142773689C4212DA2B7830688DF864
:1018C00004306B788DF80530AB788DF8063007FB67
:1018D000040001AB4A464146FFF78FFF0134E9E7B8
:1018E00003B0BDE8F083FFFF2DE9F04F2DED048B31
:1018F000032289B04FF47071B74807F0AEFDB74AC4
:1019000041F23D43D15C01F0FF000590002900F059
:101910000E820020D054B24AB24E1368B24DDFF8A6
:10192000D492DFF818A30133772BC8BF03461360A6
:10193000AE4B12681968019201310129C8BF0146F6
:10194000AB4819600168AB4A1F68039201319529C1
:10195000C8BF00210160A848A84A0168019B029203
:1019600001316329C8BF00214FEA830B0160BF002A
:1019700090460024331FB6EE008A0AEB040254F8A6
:101980000A10526895480493FFF754FA049B9FEDA0
:101990009C7AE2191A4482ED000A05F5F0712A4694
:1019A000F0EE476AF2EC017A8A4237EE277AF9D1F3
:1019B00056ED017AA9EC017A314677EEA67A91EDDF
:1019C000007A77EE877A083467EE887A5D44F02CE7
:1019D00085ED000A06F10806E8EC017A1546CCD13F
:1019E000884B9FED897A1B88DFED886A884EDFF887
:1019F00050A2DFF808B27F4DDFED869A864F9FED4B
:101A0000879A07EE903AF8EE677AB14627EE877A22
:101A1000002487EE268AB2EE047A38EE478AB0EECA
:101A2000087A67EE877A87EEA67AF7EE007A77EE85
:101A3000277A17EE900A0BF0E5FE63A3D3E90023A3
:101A40000BF080FD0CF02AFA694B1B6808EE900A37
:101A50009B00049395ED007AC7EE297ABBEC017ADE
:101A6000C5ED007A77EEC77A17EE900A0BF0CAFE42
:101A7000049B024603EB04080B460BF017FF0CF027
:101A80000DFAB8443B19DFED5E7AC8F8000004F5A2
:101A900016743A19B3EC017A934277EE877AF9D14A
:101AA00087EE897A44F250639C4205F10405F0EE1A
:101AB000687AE7EE087AAAEC017AE9EC017AC9D1F2
:101AC00040F2A91200214548FFF7B4F9DFED547A3E
:101AD000544B019A80EE270A03EB8202DFED487A2D
:101AE00082ED000A03F5F072B3EC017A934277EECF
:101AF000877AF9D19FED477AC7EE876A16EE900A8A
:101B00000BF080FE32A3D3E900230CF041F900284A
:101B100040F00D81444B454A18600146029CF6ECAA
:101B2000016AB4EC017A0294039CF4EC017A67EE4A
:101B3000A67A0394B4EEE77AF1EE10FAC8BF42F841
:101B4000201001301E28E9D10022384C10461146E1
:101B500054F82150354F0DB9059A013001311E2935
:101B6000F6D102B11860D3ED007A314A314DF8EE6A
:101B7000E77AB1EE047AF4EEC77AF1EE10FA82ED6C
:101B8000007A15DD2C4E3368052B11DD00210F2066
:101B9000FEF70CFFFF248DF81C0006A907A88DF89E
:101BA0001D408DF81E4007F035FD00232C6033608A
:101BB0002B68204A0021023B8B42ACBF13601160AE
:101BC0004FF0FF080E463DE09A9999999999B93FCF
:101BD000FCA9F1D24D62403F8D70FF1F481BFF1FD3
:101BE0006C6FFF1FB06CFF1FEC33FF1F1032FF1F25
:101BF0001832FF1F6433FF1FD86EFF1F4032FF1FD4
:101C000000000000A66EFF1F000020C300FF7F47FA
:101C10008431FF1F0000F042547CFF1F0000164378
:101C20000080D443A42FFF1FE833FF1F1470FF1F51
:101C3000E07BFF1F101AFF1F1432FF1F5813FF1FF6
:101C4000B4C2FF1FBC59002C5BD121460F20FEF708
:101C5000ADFE21460A20FEF7A9FEE62330448DF8AA
:101C60001C008DF81D3006A9FF2307A88DF81E3033
:101C70001E2407F0CFFCA8F1FF0595FBF4F598FBB7
:101C8000F4F40234FF2C9DF818308DF81C30A5F1C7
:101C90000205A8BFFF249DF819308DF81D3025EAF4
:101CA000E575EDB29DF81A308DF81E30E4B207AB41
:101CB000224629462048FFF7F5FD9DF818308DF89B
:101CC0001C309DF819308DF81D309DF81A308DF8B4
:101CD0001E30224607AB29461848FFF78EFD9DF8B7
:101CE00018308DF81C309DF819308DF81D309DF896
:101CF0001A308DF81E30224607AB29461048FFF7F0
:101D0000D1FD0436782E08F1FF089BD1002357F847
:101D10002320013247F8232001331E2BF7D1094A33
:101D2000136801331360084A13680133136009B064
:101D3000BDEC048BBDE8F08F0832FF1F706FFF1FF2
:101D4000FC7BFF1F1432FF1FD86EFF1F2DE9F041EF
:101D50000C4E05460F4600244FF014086B689C4259
:101D60000DDA08FB04F32A68D058D11800EB4000C4
:101D70003A460989304407F070FB0134EEE7BDE8CC
:101D8000F08100BF8D70FF1F73B50A213348FFF744
:101D9000DDFF05213248FFF7D9FF3248FEF7C6FFC5
:101DA000182858D972B6304C237F03F0FF020BB1CC
:101DB0000023237762B6002A4DD000212948FEF780
:101DC000C1FF72B647F6FF71B4F91E30E1834FF4DC
:101DD0000041B4F92020218462B683EAE371A1EBCB
:101DE000E37182EAE273A3EBE2738B42B8BF0B4666
:101DF00007EE903A9FED1D7AF8EEE77A0024C7EEE1
:101E0000876AC82616EE900A0BF0FCFC184B0022DD
:101E10000BF04CFD0BF0FAFF3C23C0B200FB033388
:101E20001D12AC4217D00520FEF7ACFDA31000EB4D
:101E30008400383B8DF80400694601A88DF806300F
:101E40008DF8056007F0E6FB21466A460448FFF777
:101E50000AFD0134E5E702B070BD00BF0832FF1F84
:101E6000FC7BFF1FCC6FFF1F1C32FF1F00FEFF46D5
:101E70000000694008B54FF43462002107480CF0B7
:101E8000D3F81522002106480CF0CEF824220021B8
:101E90000448BDE808400CF0C7B800BF8D70FF1FB4
:101EA0004C33FF1F1C7CFF1F10B5064C0D20217802
:101EB00002F026FF2378012B0CBF0023012323709F
:101EC00010BD00BF5713FF1F70B51E4904461E48C2
:101ED000FEF704FE21461C48FEF704FE1A4805F0F2
:101EE0002DF81A4B1A4A1978117064B2002C1C7024
:101EF0001D4605DA174A0CCA9B1A9B10013B2B7032
:101F0000154A01231370154A00241480144A1370D3
:101F1000144A1370FFF7AEFFA1B200221248013439
:101F200006F0B9F9072CF7D11048FFF7ADF8094BC7
:101F300095F900201B6853F822000368BDE8704043
:101F40001B6818471BE40000CC16FF1FA46EFF1F80
:101F50009C2FFF1FC06FFF1F5D14FF1F2C6CFF1F06
:101F60005613FF1F5413FF1FAC6FFF1FECC8FF1F5A
:101F70000A4B0B4A1B78184440B20028536805DA14
:101F80001068181A8010013840B2704712689B1A06
:101F9000B0EBA30F28BF0020704700BFA46EFF1F47
:101FA000C06FFF1F08B5FFF7E3FFBDE80840C0B2F0
:101FB000FFF78ABF4178837802788B42184638BF92
:101FC0000846904238BF104607EE900AF8EE677A4E
:101FD00084B0F5EE407AF1EE10FA72D09FED3A7AC5
:101FE00087EE275A07EE902AB8EEE77A07EE901AA6
:101FF000F8EEE76A07EE903AF8EEE77A65EE265AD1
:1020000025EE276A25EE074AF4EEC65AF1EE10FADD
:10201000B4BFF0EE464AF0EE654AB4EEE44AACBF17
:1020200002AB03ABF1EE10FAF4EEC65AA8BF01AB57
:10203000F1EE10FA8DED036A48BFB0EE656A8DEDE2
:10204000014ACDED025AB4EEC64AD3ED004A9FEDE7
:102050001F6A4CBF02AB03ABF1EE10FA48BF01ABF5
:10206000D3ED005A74EEA55AF6EE004AA5EEA46A26
:1020700036EE066AC6EE055A77EEE57A76EEE56A42
:10208000FDEEE77AFDEEE66A37EE657A16EE903AF7
:1020900017EE902ABDEEC77A83F30803BDEEE56A1A
:1020A00082F3080202EB032217EE103A16EE100A32
:1020B00083F3080302EB034380F3080003EB0060A3
:1020C00000E0002004B0704700007F430000FFC222
:1020D00073B5124BDB783BB9114A13705370937090
:1020E000D3701371537116E00026FF2578240C4934
:1020F0008DF8046001A88DF805508DF8064007F0B2
:1021000089FA08498DF8046001A88DF805508DF80A
:10211000064007F07FFA02B070BD00BFE47BFF1FEE
:102120009D2FFF1FA02FFF1FF7B580224FF4707166
:102130001448144F07F091F9134A137801331370C0
:1021400023254FF47071002005F04FF80446142049
:1021500005F040F80646FF2005F03CF804EB44018A
:102160008DF80500FA23603E394401A88DF804601B
:102170008DF8063007F04EFA013DE2D1FFF7A8FFD7
:1021800003B0F0BD8D70FF1F2C1AFF1FF7B5FFF7CE
:102190009FFF2A4B2A4EDB79002B3BD000252C4693
:1021A000FF270520FEF7EEFB2844C1B20520FEF70D
:1021B000E9FB20448DF8041004EB44018DF8050080
:1021C000314401A801348DF806701E3507F022FA5B
:1021D000072CEDB2E5D100251A4E2C469627052096
:1021E000FEF7D0FB2844C1B20520FEF7CBFB20440C
:1021F0008DF8041004EB44018DF80500314401A86A
:1022000001348DF80670143507F004FA0C2CEDB289
:10221000E5D111E01A46F254F1180333152B4A7038
:102220008A70F8D1002307481A461A54C11803339C
:10223000242B4A708A70F8D103B0F0BDE47BFF1FF5
:102240004C33FF1F1C7CFF1F2DE9F347404FDFF885
:1022500008A100250024264607EB05090AEB05081E
:102260001120FEF78FFB2044C1B20120FEF78AFB4C
:1022700000B2C0EBC00040113838FF238DF80410C5
:102280008DF80500694601A88DF8063007F0C2F9FF
:102290009DF800308DF804309DF801308DF8053040
:1022A00031469DF802308DF8063001AA4846FFF706
:1022B000A5F89DF800308DF804309DF801308DF8B8
:1022C0000530C6F13C019DF802308DF8063001AAB8
:1022D00040460136FFF792F805343C2EE4B2BFD1F8
:1022E0001435782DB6D1002425461120FEF74AFB7F
:1022F0002044C1B20220FEF745FBF0238DF80530E3
:10230000DD2310FB03F0001214308DF804108DF85B
:102310000600694601A807F07DF99DF800308DF8A8
:1023200004309DF801308DF8053029469DF80230C3
:1023300008488DF8063001AA0135FFF75FF805342B
:102340004D2DE4B2D1D1FFF721FF02B0BDE8F087F7
:10235000306CFF1F706FFF1FB832FF1F2DE9F7436E
:10236000254C2368DB0709D4204602F010FC28B175
:102370002248FEF7D1FC204602F00EFC1F48FEF773
:10238000D5FC132834D900211C48DFF87880FEF7EB
:10239000D9FC1B4B1A78002402321A7025461E46BF
:1023A0004FF0F00933788DF805902B448DF8043008
:1023B00008EB0401962301A803348DF80630053597
:1023C00007F028F9B4F5346FEDB20E4FEAD10324CB
:1023D000FF254FF47071002004F007FF00EB400070
:1023E0003B18013C3D545D709D70F2D1FFF7CEFE6D
:1023F00003B0BDE8F08300BF041AFF1F081AFF1FD7
:10240000001AFF1F8D70FF1F2DE9F04F2DED028B7D
:10241000AD4DAE4FAE4EA5B004460D224FF47071D7
:10242000AC4807F01AF82B6813F0010F0AD12846C0
:1024300002F0ADFB30B13B680793079B3360284641
:1024400002F0AAFB3B6808933268089B9B1A228C17
:102450009342C0F0CE811A2209A99F4805F066FD7B
:10246000282212A99C4805F061FD08221BA99A4860
:1024700005F05CFD17980BF0C5F9D4E90C89064608
:1024800002460B460F46404649460BF00FFA0246FD
:102490000B46D4E902010BF057F89DED188AC4E908
:1024A000020118EE100A0BF0ADF942464B460BF054
:1024B000FDF902460B46D4E904010BF045F8C4E9E6
:1024C00004010E980BF09EF9D4E90E23804689464C
:1024D0000BF0ECF941EC100B09F0A2F9D4E90A2356
:1024E000304639468DED020B0BF0E0F99DED020B05
:1024F00053EC102B0BF004FB0022C4E90601774BD0
:10250000404649460BF0FCFA0022754B0BF0CEF921
:102510000BF07CFCF3EE097A68EE277A714BFDEE46
:10252000E77A00F1030817EE905AF1EE087AB4EE5C
:10253000E78AF1EE10FACCBFFF2200221A705A701F
:102540009A70DA701A715A710621674A98FBF1F392
:102550004FF0140A022DC0EB001901FB13880AFB8F
:102560000828D8BF00255FFA89F900260AFB002A4F
:1025700031465046FEF78BFD002183460620FEF7CC
:1025800015FAF7B2484407EB4000FF2459468DF88E
:10259000180006A88DF819408DF81A4007F03AF88F
:1025A00031464046FEF773FD002183460620FEF7C4
:1025B000FDF9484407EB4007594606A801368DF857
:1025C00018708DF819408DF81A4007F023F83C2E4A
:1025D000CED1EEB24FF000086FEA060ADFF810B174
:1025E0005FFA8AFA4346DBF80410414529DDDBF83F
:1025F0000050142202FB08556F6807EB470951464B
:1026000028460293FFF7E2F8B842029B16DA297BCC
:102610002A6949B129686868791A411A01EB4101B0
:1026200050185354437004E002EB090002F80910FB
:1026300041708470013FA9F10309E0E708F1010846
:10264000D1E7DDED187AB3EE0E7A67EE877A06A948
:10265000FCEEE77A05A817EE903A8DF81430C823FF
:102660008DF815308DF8163006F0D4FF1F4B1D681D
:102670001F6993F80C905B6805EB45043C4403EB41
:10268000050831461948FFF7A1F8A84232DD9DF848
:102690001820B9F1000F0CD0C5EB080303EB43037E
:1026A000F918FA549DF819304B709DF81A308B7058
:1026B00006E022709DF8193063709DF81A30A370FF
:1026C00001350334DDE700BFEC19FF1F68C3FF1FAE
:1026D000F019FF1F8D70FF1F0070FF1F00807640F4
:1026E000000018409D2FFF1FB832FF1F706FFF1FA3
:1026F000FC7BFF1F414CFFF749FD2368DB070CD42F
:10270000204602F044FA40B13D4D2846FEF728F934
:10271000FA236B60204602F03FFA3948FEF7ACFB23
:10272000002866D037493848384DFEF7D7F90E985B
:102730000BF068F841EC100B0221334804F054FC14
:10274000314804F0FBFB32492F48FEF7C7F9314905
:102750002D48FEF7C3F917980BF054F841EC100B15
:102760000221294804F040FC2B492748FEF7B6F91E
:1027700018980BF047F841EC100B0221224804F0A6
:1027800033FC26492048FEF7A9F919980BF03AF8CE
:1027900041EC100B02211C4804F026FC1A4804F0FE
:1027A000CDFB002306930DF11B0300930DF11902DD
:1027B0000DF11A0306A91A4805F0C8FA2C6814F09E
:1027C000010416D1284602F0E2F990B1154BFF2220
:1027D0001A70DA70A5219A71DA7180225C709C708F
:1027E00019715C711C725C729A72DC72284602F07C
:1027F000D3F925B0BDEC028BBDE8F08FE019FF1FC7
:10280000E419FF1F46E40000CC16FF1FD019FF1F7C
:1028100050E400005CE4000060E4000064E40000B8
:102820000070FF1FD419FF1F7FB5314C314E4FF49C
:1028300070712046142206F010FE2F4B1A883B239D
:1028400053432E4A126803921B14039802334FF429
:102850008C721B02504303F47F435843000CFDF776
:1028600033FEA0F5004040F2C13380B258433378C4
:102870008DF80430FF23050C8DF8053002A9C02324
:1028800001A88DF8063006F0C5FE05EB45009DF861
:102890000810235C221883FA51F323549DF8091081
:1028A000537883FA51F353709DF80A10937883FAA2
:1028B00051F3134D93702B6813F0010F34460CD174
:1028C000284602F064F940B10E4A1046FEF748F877
:1028D00003235360284602F05FF90A48FEF7CCFA5A
:1028E00010B1237801332370FFF750FC04B070BDA2
:1028F0008D70FF1F201AFF1FA66EFF1F68C3FF1FEA
:10290000141AFF1F181AFF1F10B503F017FF002835
:102910001ADD03F0D1FEC0B26E2801D1012003E020
:10292000622805D14FF0FF30BDE81040FFF73ABBF9
:10293000064C07492368074801332360FEF7CEF8A9
:1029400021680448FEF7DEF910BD00BFD87BFF1FE9
:1029500068E40000CC16FF1F08B5084B0122186878
:10296000242104F02BFD064B1880064B1B781BB16D
:10297000054BC0F30720187008BD00BF2CC3FF1F14
:10298000A66EFF1F5D14FF1FECC8FF1F0121014849
:1029900005F075BDF06EFF1F10B51F4808F016F961
:1029A000002837D01C4808F01FF9044668B31B49BB
:1029B0001B48FEF793F8184808F016F900230A227E
:1029C0000146174804F0CAFA16491548FEF786F87A
:1029D000114808F00FF9002301460A22104804F0BC
:1029E000BDFA114B9C4203D041F21E139C4202D10E
:1029F0000120FFF7D7FA41F292039C4202D00B4B21
:102A00009C4202D10A4B02221A700348BDE81040D2
:102A100008F0E4B810BD00BF047CFF1F6DE40000A7
:102A2000CC16FF1F77E400003FAA030006120F0038
:102A3000DC7BFF1F10B5094C94F90000431C04D047
:102A4000C0B2FFF741FAFF232370054C94F9000050
:102A500018B1FFF7A7FA0023237010BD5513FF1F0D
:102A60008C70FF1F10B5044C04482188FEF74AF90A
:102A70000023238010BD00BFD47BFF1FCC16FF1F97
:102A800013B50F4C002301AA102120468DF8043005
:102A90008DF805308DF8063006F0BAFCFF23237060
:102AA0006370A37023736373A37323766376A37633
:102AB00084F8243084F8253084F8263002B010BD24
:102AC000A86EFF1F084A0949094808B5002313707A
:102AD000084A1380FEF774FA074B01221A70BDE80A
:102AE0000840FFF7CDBF00BF5613FF1F58F100008D
:102AF000A86EFF1F2C6CFF1FD67BFF1F002310B595
:102B00000021044640F8083BFEF71CF94FF47A70A8
:102B1000FDF7CAFC00F5FA70E0600620FDF7BCFC8A
:102B200001300AF05DFE0022034B0AF0BFFE0BF0FD
:102B3000B5F9606010BD00BF0000D03F2DE9F04145
:102B4000464C2DED028B2368DB0782B009D420466A
:102B500002F01DF828B14248FEF7DEF8204602F0E8
:102B60001BF83F48FEF7E2F8012871D900213C48E4
:102B7000FEF7E8F83B48036813F0010514D102F0B2
:102B800006F888B1384C04F160062046FEF7C4F818
:102B9000A4F10800FFF7B2FF103444F80C5CB44213
:102BA000F3D1304801F0F8FFC8238DF804309623A4
:102BB0008DF8053001AA64234FF470712B488DF80D
:102BC000063006F04CFC284C294FDFF8AC809FED16
:102BD000298A00262046FEF7A9F86368984232D376
:102BE00054ED027AFDEEE77AFF2517EE901A01AA5E
:102BF000B8198DF804508DF805508DF80650FEF781
:102C0000FDFB54ED027A8DF80450FDEEE77A01AA3F
:102C100017EE901A08EB06008DF805508DF8065057
:102C2000FEF7ECFB54ED027A14ED017A77EE877A29
:102C3000F4EEC87AF1EE10FA44ED027A03DDA4F165
:102C40000800FFF75BFF1436782E04F11004C1D1A1
:102C500002B0BDEC028BBDE8F08100BF301BFF1F4E
:102C6000341BFF1FCC1AFF1FD81AFF1F8D70FF1FC8
:102C7000B832FF1F00006C42306CFF1FFFFFFFFFE8
:102C8000D0B504466420FDF707FC6430C0B20AF0FA
:102C9000A7FD00220E4B0AF033FF0BA3D3E900235C
:102CA0000AF052FC00220B4B06460F460BF08EF842
:102CB00008B1084F0026394630460BF0EFF8606146
:102CC000FDF7D8FB2076D0BD9A9999999999C93F7B
:102CD000000069400000F03F2DE9F04F80482DEDE5
:102CE000048B036813F0010587B04FF0000826D16C
:102CF00001F04DFF18B37B4CDFF8009204F18C0615
:102D00004FF07E5A784B04F8045C1B680593059BD2
:102D100044F8105C5B0044F8143CD9F8003044F8E7
:102D20001CAC44F80C3C44F8188CA4F11C001C3476
:102D3000FFF7A6FFB442E5D1694801F02DFF6B4CC7
:102D40000025694B9FED6A9A1B680493049E636893
:102D50007600F31A07EE903AB8EEE78AC8EE097AE1
:102D600084ED008A17EE900A0AF04CFDD4ED038A38
:102D700002460B4628EE288A0AF098FD00225D4B99
:102D80000AF094FDC8EE097A804689469FED5A8A7A
:102D900017EE900A0AF036FD02460B4640464946B9
:102DA0000AF0D2FB0BF07AF807EE900AF4EEC87A3C
:102DB000F1EE10FA02D444F8040C19E0D4ED047AD0
:102DC00004ED018A68EEA78A666018EE900AC4EDE9
:102DD000038A0AF017FD40A3D3E900230AF0D8FFC5
:102DE000002876D0454B201F1B68E360FFF748FFA3
:102DF00054ED017A9FED427A67EE877AF5EEC07A5C
:102E0000F1EE10FA08DB17EE900A0AF0FBFC002244
:102E10003C4B0AF099FB07E017EE900A0AF0F2FC2F
:102E20000022384B0AF08EFB0AF0F0FF237DA060F1
:102E30002B448DF80830DC23C0F13B068DF80930B7
:102E400002A8C82303A9DFF8C0808DF80A304FF02C
:102E5000140A06F0DFFB0022F0B2D8F804309342E7
:102E60002BDDD8F800C09DF80D3001930AFB02FE5F
:102E70000CEB0E069DF80C90377B9DF80EB0316977
:102E8000034617B1B3681B1A013B5CF80E6033446C
:102E900003EB4303CE1811F803E08EFA59FE01F854
:102EA00003E09DF80410737883FA51F37370B378DC
:102EB00083FA5BF3B3700132CFE73235EDB2FA2D0E
:102EC00004F11C047FF43DAF07B0BDEC048BBDE8FA
:102ED000F08FF0EE487A96E77B14AE47E17A843FB4
:102EE000341AFF1F541AFF1F68C3FF1F3C1AFF1F2D
:102EF00000007A440000E0BF000000004814FF1FFB
:102F000000006C420000E03FFC7BFF1F73B5FFF741
:102F100091FD784B1B780BB1FEF7ACFF764B93F924
:102F20000020764B1B6853F8220003685B689847C3
:102F3000734B1B781BB3734B1B7833B9724805F086
:102F4000DBF87248FEF7A0F819E0714C002514F880
:102F5000013C8DF8043023788DF8053001A86378A2
:102F60008DF80630FFF726F8A9B20246013566480B
:102F700005F091F9072D04F10304E8D1DEE7654A75
:102F8000138801331380644A1378FBB1634C5F4D9F
:102F9000013B1370FEF76EFFFF232E7823702B701A
:102FA0006370A370E370237163712846FEF76CF8B9
:102FB0001E2001F075FF002323706370A370E3707F
:102FC000237163712846FEF75FF82E70544C236816
:102FD000DE070CD4204601F0DAFD40B1514A10461C
:102FE000FDF7BEFC64235360204601F0D5FD4D483B
:102FF000FDF742FF08B1FFF7C9FC4B4C2368DD0722
:103000000CD4204601F0C3FD40B1484A1046FDF7FC
:10301000A7FCFA235360204601F0BEFD4348FDF7AC
:103020002BFF08B1FFF798FC414C2368D8070CD45C
:10303000204601F0ACFD40B13E4A1046FDF790FC41
:1030400032235360204601F0A7FD3A48FDF714FFF4
:1030500008B1FFF7A1FC384C2368D9070DD42046EE
:1030600001F095FD48B1354A1046FDF779FC4FF463
:103070007A735360204601F08FFD3048FDF7FCFE67
:1030800008B1FEF711FF2E4C2368DA070CD4204656
:1030900001F07DFD40B12B4A1046FDF761FC642331
:1030A0005360204601F078FD2648FDF7E5FE08B1A3
:1030B000FFF72AFC244C2368DB070DD4204601F0DF
:1030C00066FD48B1214A1046FDF74AFC4FF47A7379
:1030D0005360204601F060FD1C48FDF7CDFE08B1AD
:1030E000FFF7C0FC1A4B188808B101F0D9FE02B0F6
:1030F00070BD00BF5613FF1FA46EFF1FC06FFF1FE0
:103100005413FF1F5C14FF1FAC6FFF1FECC8FF1FA1
:103110004D33FF1FD47BFF1FDC7BFF1F9D2FFF1F45
:10312000DC33FF1F0032FF1FE033FF1F846FFF1FE0
:10313000F47BFF1F8C6FFF1FF87BFF1F946FFF1F37
:10314000E433FF1F9C6FFF1FFC31FF1FA46FFF1FA5
:103150002C6CFF1F10B50C1A1346A20805D00146AF
:10316000224618460AF045FF0346181910BDFFFF16
:10317000F0B5042099B004F04AF86F4B0360059055
:10318000042004F044F86D4B03600690082004F01E
:103190003EF800256A4B4560044640F8043BFDF7C5
:1031A000BBFD4020079404F032F829460446402233
:1031B0000AF03AFF634B23600A23238458A3D3E920
:1031C0000023C4E90A2358A3D3E90023C4E90C234C
:1031D00057A3D3E900230420C4E90E23089404F084
:1031E00016F8594B03600990042004F010F8574B6F
:1031F00003600A90942004F00AF8294604469422B9
:103200000AF012FF524B236094200B9403F0FFFF4F
:1032100006462946942234460AF006FF4D4B44F8F0
:10322000103B06F1A0054FF0FF370220FDF734F9FF
:1032300010B144F8080C01E044F8087C3C20FDF78C
:103240002BF944F80C0C0620FDF726F90C3444F851
:10325000100CAC42E9D104200C9603F0D8FF3E4B91
:1032600003600D90042003F0D2FF3C4B03600E90EE
:10327000042003F0CCFF3A4B03600F90042003F0CE
:10328000C6FF384B03601090042003F0C0FF364B9C
:1032900003601190042003F0BAFF344B03601290D6
:1032A000042003F0B4FF324B03601390042003F0BA
:1032B000AEFF304B03601490042003F0A8FF2E4BA8
:1032C00003601590042003F0A2FF2C4B03601690BE
:1032D000042003F09CFF2A4C2A4B03602268A36859
:1032E00017909B1A4B2B11D84C2003F090FF18A974
:1032F0000246054605A8FFF72DFF206808B103F038
:1033000088FF25604C356560A56049E06568AD1AA9
:103310004B2D39D918A905A83FE000BFAFF30080B5
:103320007B14AE47E17A843F2D431CEBE2360A3F23
:1033300011E226A246DF913F48E3000088E2000048
:1033400008E3000038E30000F8E2000078E2000043
:1033500058E3000068E30000B8E2000018E3000052
:1033600028E3000048E20000D8E2000098E20000F4
:10337000A8E20000C8E20000E8E2000068E2000005
:10338000C06FFF1F58E2000005AB1D4429461846D8
:10339000FFF7E0FE626818A92846FFF7DBFE6060D1
:1033A000A649A74AA748A84D0B78002B00F03D81FD
:1033B0000378DB0740F1398113682E689B1B0E2BC5
:1033C00040F23381A149A248A24EFDF78FFBA249EA
:1033D0009F48FDF78BFB00211A2001F071FE40F69B
:1033E000354001F0F7FD336813F001050DD130468B
:1033F00001F0CDFB48B1994F3846FDF7C1FD984B20
:103400003D8330463B6001F0C7FB00230222954913
:103410009248954E05F054FF94498D48FDF766FBA0
:10342000934804F015FE242003F0F1FE2422054603
:1034300000210AF0F9FD2846FDF7A2FD8D4B2B6017
:1034400000232B842846F0228B4905F039FF33688E
:1034500013F001050DD1304601F099FB48B1874FBB
:103460003846FDF78DFD864B3D8430463B6001F0CC
:1034700093FB00230C228349804805F021FF824BF7
:10348000824ADA6046F2A8129A6096221A700021E7
:10349000182001F063FC18217D4807F093FB7D495B
:1034A0006B48FDF723FB4FF0FF322E217A4804F0E2
:1034B000B3FF08B1002518E078496548FDF716FB11
:1034C00055E0EEB2012303223146734804F0CCFFED
:1034D000012302223146704804F0C6FF704A6E484C
:1034E000314604F0BDFF0135ADB26E4805F015FB65
:1034F0008542E6D300252E46F0271EE003A904A846
:103500008DF810508DF811708DF8127006F082F859
:103510009DF80E109DF80D309DF80C20009161482B
:10352000314605F061FA5F4805F02BFA192001F0E9
:10353000B7FC01361435B6B2EDB25A4805F0EDFAD3
:103540008642DBD30025574805F0E7FAAEB2864243
:1035500005F101050BD200223146524805F088FAE8
:10356000504805F00EFA192001F09AFCEBE74E499D
:103570003748FDF7BBFA0C214C4804F099FB20B901
:103580004B493348FDF7AAFA1AE04A493048FDF79B
:10359000ADFAC82001F084FC444804F0EFFB464932
:1035A00005462B48FDF79AFA2946294803F011FDF4
:1035B00042492748FDF79AFA01213C4804F035FBBF
:1035C00008213F483F4D03F0D3F901210D2001F0C0
:1035D000C5FB0021242001F0C1FB28680122102135
:1035E00003F0E4FE28680122102103F0C7FE2868DA
:1035F0000122002103F0CAFE28680122022103F003
:10360000CDFE01220021286803F0B0FE2B68D3F81C
:10361000580103F0D7FF0A2001F042FC2368186824
:1036200003681B68984719B0F0BD13680593059BA4
:10363000B3F5FA6F7FF6B8AEC4E600BF38C7FF1F18
:1036400068C3FF1F50C7FF1F58CEFF1F81E4000053
:10365000CC16FF1FA019FF1F8CE40000A419FF1F48
:1036600078E300009D2FFF1F7819FF1F8FE40000F3
:10367000AC6FFF1FC0E300008D70FF1F7C19FF1FA0
:103680009CE300001C7CFF1FECC8FF1F919700000B
:10369000047CFF1F98E40000F06EFF1FA1E400000F
:1036A000010B0000006FFF1FB2E400000070FF1F5D
:1036B000BEE40000D2E40000E3E40000F1E4000016
:1036C0000002FF1F2CC3FF1F10B5044603F0A1FD2D
:1036D000204610BD204A136843F080732DE9F04F57
:1036E00013601E4A0668136843F001031360043236
:1036F0000021116089B0C47C477B00F114030134C0
:1037000000931D4655F8043F33445B7813B183FAA8
:1037100057F3DBB263430DF1080E1B120EF80130B4
:1037200001310429EED172B61368DFF834B0E83302
:103730008168002940F3F98172B61168994211D964
:103740000749096841F69C04C91AA1420AD962B620
:10375000034B1868EAE100BFFCED00E0001000E058
:10376000041000E0C17B067B447B039D90F812E0CF
:10377000DDF800808E1B017C091B4173847B417C3A
:10378000091B817385EAD51101F0AA1785EA0701A3
:1037900081EAC71181EA91374CF6CC45029C3D4045
:1037A000694081EA853584EAD41101F0AA1784EAD8
:1037B000070181EAC71181EA91374CF6CC443C40BD
:1037C000614081EA843101F00F37090905F0F034D6
:1037D00001F00F312D01214305F0F0353D43F6B2E4
:1037E000069100F11C010673059501910DF11C0C69
:1037F000894600274FF00F0A0EF1010E1168994219
:10380000FCD3DBF80030BD49E533C1F800A01168F6
:10381000591ABC29FBD81CF8011DB94CC94301F049
:103820000F0121601168591A7429FBD8B449056841
:10383000C1F800A058F8041F695C11B181FA56F173
:10384000C9B20EFB01F102AC0912E15559F8041F8F
:10385000695C11B181FA56F1C9B202AC3C440EFB6D
:1038600001F101370912022FA170C7D105260F27D8
:1038700011689942FCD3DBF80030A049E5330F60B2
:103880001168591ABC29FBD805A99D4C715CC94324
:1038900001F00F0121601168591A7429FBD8984969
:1038A00016F1FF360F60E3D2039F029E90F80EC020
:1038B00087EAD71101F0AA1E87EA0E0181EACE112C
:1038C00081EA913E4CF6CC470EEA0707794081EA3F
:1038D000873786EAD61101F0AA1E86EA0E0181EA30
:1038E000CE1181EA913E4CF6CC460EEA06067140B6
:1038F00081EA863107F0F0363F0101F00F3E07F014
:10390000F03747EA0E070909059701F00F31077DE7
:103910009DE80003314306910DF11C0E00264FF087
:103920000F0A013711689942FCD3DBF80030734964
:10393000E533C1F800A01168591ABC29FBD81EF85C
:10394000011D6F4CC94301F00F0121601168591A24
:103950007429FBD86A49C1F800A058F8041F29440B
:10396000897811B181FA5CF1C9B2794302AC0912CC
:10397000A15559F8041F2944897811B181FA5CF1E5
:10398000C9B202AC3444794301360912022EA17047
:10399000C8D105260F275B4909689942FBD3DBF89C
:1039A00000305649E5330F6056490968591ABC2959
:1039B000FAD805A9524C715CC94301F00F0121608E
:1039C00050490968591A7429FAD84D4916F1FF3639
:1039D0000F60E0D290F91510039E029C90F80DE064
:1039E000DDF800C00D44816805600139816086EA18
:1039F000D61101F0AA1786EA070181EAC71181EA08
:103A000091374CF6CC463E40714081EA863684EAD6
:103A1000D41101F0AA1784EA070181EAC71181EAEB
:103A200091374CF6CC443C40614081EA843106F049
:103A3000F034360101F00F3706F0F0363E43090945
:103A4000059601F00F31C67C214306910DF11C084B
:103A500000244FF00F0901362A4909689942FBD327
:103A6000DBF800302549E533C1F8009025490968A5
:103A7000591ABC29FAD818F8011D214FC94301F081
:103A80000F0139601F490968591A7429FAD81C496D
:103A9000C1F800905CF8041F2944497811B181FAFB
:103AA0005EF1C9B20DF1080A714309120AF8041057
:103AB000019951F804AF01910AEB0501497811B160
:103AC00081FA5EF1C9B20DF1080AA24471430134D2
:103AD0000912022C8AF80210BED105240F250949CB
:103AE00009689942FBD3DBF800300449E5330D60E7
:103AF00004490968591ABC29FAD805E0C4F00F40F6
:103B0000C8F00F40041000E005A9615CC94301F052
:103B10000F01396007490968591A7429FAD814F154
:103B2000FF343D60DBD262B602E6106809B0BDE842
:103B3000F08F00BF041000E038B504460D4601F0D8
:103B40008FF9238CC01A80B22728F8D92846FFF7AE
:103B5000C1FD01F085F9208438BDFFFFA04AA149CD
:103B6000136843F080732DE9F04F13609E4A136889
:103B700043F0010313600432002313600B680B68E9
:103B800023F020030B60037C447B1C1BE4B203681E
:103B900044735B7813B183FA54F3DBB2C47C04FB47
:103BA0000333C3F3072372B6904D14688D4E04F1AE
:103BB000E80C42F2742E2C468768002F40F30B81EC
:103BC00090F80C80C77BC8EB0707077390F80D804F
:103BD000077CC8EB0707477390F80E80477CC8EB5B
:103BE0000707877372B61768674508D92F68CCEB4B
:103BF0000707774503D962B60020BDE8F08F0F684C
:103C000047F020080F684FF0070927F02007D2F887
:103C100000A0E245FBD3D4F800C0C1F8008013F047
:103C2000800F0CF1E80C07D0D2F800A0CAEB0C0A08
:103C3000BAF1820FF8D806E0D2F800A0CAEB0C0A5D
:103C4000BAF1BC0FF8D85B00B9F101090F60DBB223
:103C5000DDD1D2F80090CC45FBD8D4F800C0C1F833
:103C600000801B060CF1E80C05D51368C3EB0C03B0
:103C7000822BFAD804E01368C3EB0C03BC2BFAD8F0
:103C8000D0F800900F6099F8003023B190F80CA0A4
:103C900083FA5AF3DBB290F812A00AFB0333C3F3A2
:103CA00007234FF0070AD2F800B0E345FBD3D4F85E
:103CB00000C0C1F8008013F0800F0CF1E80C07D0B1
:103CC000D2F800B0CBEB0C0BBBF1820FF8D806E0BA
:103CD000D2F800B0CBEB0C0BBBF1BC0FF8D85B00FB
:103CE000BAF1010A0F60DBB2DDD1D2F800A0D445F1
:103CF000FBD8D4F800C0C1F800801B060CF1E80C1A
:103D000005D51368C3EB0C03822BFAD804E01368C3
:103D1000C3EB0C03BC2BFAD80F6099F8023023B127
:103D200090F80EA083FA5AF3DBB290F814A00AFBC5
:103D30000333C3F307234FF0070AD2F800B0E3457B
:103D4000FBD3D4F800C0C1F8008013F0800F0CF151
:103D5000E80C07D0D2F800B0CBEB0C0BBBF1820F14
:103D6000F8D806E0D2F800B0CBEB0C0BBBF1BC0FDF
:103D7000F8D85B00BAF1010A0F60DBB2DDD1D2F8EE
:103D800000A0D445FBD8D4F800C0C1F800801B06C1
:103D90000CF1E80C05D51368C3EB0C03822BFAD8A1
:103DA00004E01368C3EB0C03BC2BFAD837608368BC
:103DB00090F91570013B4F44076083607B781BB11D
:103DC000477B83FA57F3DBB2C77C07FB0333C3F3AC
:103DD000072362B6F0E662B61068BDE8F08F00BF58
:103DE000FCED00E0C0F00F40001000E0041000E027
:103DF0000A7B02734A7B42738A7B8273CA7BC273DB
:103E00000A7C02744A7C42740A6802608A7C82746A
:103E1000CA7CC2740A7D027591F9152042754A6800
:103E2000426082608A698261704730B5044689B019
:103E30000D4601F015F8238CC01A80B23128F8D94C
:103E4000294601A8FFF7D4FF01A8FFF787FE60B954
:103E500062B640F6B833013BFDD172B6294601A8DF
:103E6000FFF7C6FF01A8FFF779FE00F0F9FF2084F5
:103E700009B030BD002330B51A4600F1140444F8EF
:103E8000042F013390F91550042B01FB0522F6D1C4
:103E900030BD002383617047002383617047FFFFBB
:103EA00070B5184B1A78013202F0070212F0010FB8
:103EB0001A700CBF00238023910744BF43F04003D6
:103EC000DBB2520748BF43F02003103300F10E016C
:103ED000DAB211304FF480760B791BB196FBF3F315
:103EE0000133DBB203FB02252D1201F8013FECB2D6
:103EF00005B1013C01F8034C0BB1013B0B7088424A
:103F0000EAD170BD7619FF1F30B515468BB0827CA3
:103F100002958DE8220019788DF81210012A59783F
:103F20009B788DF8131004468DF8143003D1684641
:103F3000FFF7B6FF0CE000238DF811308DF810303C
:103F40008DF80F308DF80E308DF80D308DF80C3067
:103F50000023294668468DF81530FFF78BFF23684C
:103F600069469B69204698470BB030BD30B5154671
:103F70008BB0827C02958DE8220019788DF81210A2
:103F8000012A59789B788DF8131004468DF8143067
:103F900003D16846FFF784FF0CE000238DF8113051
:103FA0008DF810308DF80F308DF80E308DF80D3003
:103FB0008DF80C300323294668468DF81530FFF73D
:103FC00059FF236869469B69204698470BB030BD6E
:103FD00070B5184B1A78013202F0070212F0010F87
:103FE0001A700CBF00238023910744BF43F04003A5
:103FF000DBB2520748BF43F02003103300F10E013B
:10400000DAB211304FF480760B791BB196FBF3F3E3
:104010000133DBB203FB02252D1201F8013FECB2A4
:1040200005B1013C01F8034C0BB1013B0B70884218
:10403000EAD170BD7519FF1F30B589B01546827C75
:10404000019119788DF81610012A59789B780295FC
:10405000044603958DF817108DF8183003D101A888
:10406000FFF7B6FF0CE000238DF815308DF8143003
:104070008DF813308DF812308DF811308DF8103026
:104080000023294601A88DF81930FFF702FF2368A5
:1040900001A99B692046984709B030BD30B589B069
:1040A0001546827C019119788DF81610012A5978ED
:1040B0009B780295044603958DF817108DF81830FB
:1040C00003D101A8FFF784FF0CE000238DF8153021
:1040D0008DF814308DF813308DF812308DF81130C2
:1040E0008DF810300323294601A88DF81930FFF709
:1040F000D0FE236801A99B692046984709B030BDCE
:1041000070B5184B1A78013202F0070212F0010F55
:104110001A700CBF00238023910744BF43F0400373
:10412000DBB2520748BF43F02003103300F10E0109
:10413000DAB211304FF480760B791BB196FBF3F3B2
:104140000133DBB203FB02252D1201F8013FECB273
:1041500005B1013C01F8034C0BB1013B0B708842E7
:10416000EAD170BD7419FF1F30B589B01546827C45
:10417000019119788DF81610012A59789B780295CB
:10418000044603958DF817108DF8183003D101A857
:10419000FFF7B6FF0CE000238DF815308DF81430D2
:1041A0008DF813308DF812308DF811308DF81030F5
:1041B0000023294601A88DF81930FFF76DFE23680A
:1041C00001A99B692046984709B030BD30B589B038
:1041D0001546827C019119788DF81610012A5978BC
:1041E0009B780295044603958DF817108DF81830CA
:1041F00003D101A8FFF784FF0CE000238DF81530F0
:104200008DF814308DF813308DF812308DF8113090
:104210008DF810300323294601A88DF81930FFF7D7
:104220003BFE236801A99B692046984709B030BD31
:104230002DE9F04F4FF4B27085B002F0E8FF04466C
:1042400003F062F8C74BC8481C60C84CDFF888A36D
:10425000C74D06F08DFCC74B29224FF0FF31204699
:1042600003F0B2FC2046C44CC44AC54909F066FEBE
:10427000C449204604F0B0F82046C34CBF4AC349A5
:1042800009F05CFED22315220721204603F0EDFF42
:10429000BA4ABF49204609F051FE0022BD4C1146E2
:1042A0005046FCF7A3FDBC4BCAF80030102004F0C8
:1042B000E5FD04F1180201212046FCF797FDB74BFC
:1042C000236047F6FF73E3834FF4004323846C605D
:1042D00028460024C5F800A02C726C72EC602C7487
:1042E00002F00DFCA54AAE49284609F027FEAD496B
:1042F000AD4AAE4D0C604FF49673CB624FF4B4737D
:10430000CB634FF4D2730B644FF416730B654FF409
:1043100025734B654FF4F0733C204FF0F00C4FF4D5
:10432000077E4FF078094FF0B4084B664FF4967350
:10433000C1F828C0C1F868E082E8010248608860DE
:104340000C730D61C1F81490C1F81880C86181F830
:1043500020404D62086381F834408D63486481F8E1
:104360004840CD64886581F85C400D66C86681F878
:1043700070404D67906093624FF4B473D3624FF412
:10438000D273D3634FF4F07313644FF42573136542
:104390004FF4347353654FF416739366844BC2F82D
:1043A00018C04FF4347740F21D3B83E880084FF08B
:1043B0004D0BC3F808B01C731D617E4BC2F864E05E
:1043C00001264FF0070B16731561C2F81480D061F7
:1043D00082F820605562106382F8346095635064FF
:1043E00082F84860D564906582F85C601566D06696
:1043F00082F8706055671C60C3F804B0C3F808B059
:10440000DFF8D8B11C73C3F810B06B4B4FF496773C
:10441000DF624FF4B477DF634FF4D2771F644FF459
:10442000F0771F654FF416775F664FF425779F6628
:104430004FF49677C3F828C0C3F854E01C60586066
:1044400098601C731D61C3F81490C3F81880D8617C
:1044500083F820405D62186383F834409D6358649C
:1044600083F84840DD64986583F85C401D66D86633
:1044700083F87040C3F8A0704FF4B477C3F8A47009
:104480004FF4D2775D67C3F88850C3F89C50C3F8E7
:10449000B050C3F8B470C3F8C450C3F8D850C3F8D0
:1044A000EC504FF4F077454DC3F8B8704FF41677E1
:1044B000C3F8CC7029604FF4257741499867C3F859
:1044C0008000C3F89400C3F8A800C3F8BC00C3F888
:1044D000D000C3F8DC70C3F8E4004FF43477062052
:1044E000C3F890C0C3F8C8E0C3F87C9083F8846038
:1044F000C3F88C8083F8986083F8AC6083F8C06060
:1045000083F8D460C3F8E07083F8E86068600A60FC
:104510002C4A486013602C48DFF8C4800C23536099
:10452000FCF7FAFB2948154A046044608460284976
:1045300009F004FD274B8DF80440FF251C705C70CA
:104540009D70DD701C715C719C71DD711D725D72FE
:104550009C72DD721D735D739D7304230DEB03006C
:1045600040E000BF2CC3FF1F047CFF1F0070FF1F33
:10457000DC6EFF1FA817FF1FF06EFF1F0C13FF1F3D
:10458000CD0600008018FF1FAC6FFF1FDD07000085
:10459000318000001C32FF1F54F100003CF100008C
:1045A000D1070000B832FF1F306CFF1F8D70FF1F56
:1045B000706FFF1F407CFF1F9C6DFF1F0832FF1FA5
:1045C000FC7BFF1F3033FF1FCC6FFF1FC06FFF1F2F
:1045D00075090000A4C2FF1F8C6EFF1F4C33FF1F24
:1045E000481BFF1F69468DF805508DF8063005F011
:1045F00011F808230DEB030103A88DF80D508DF879
:104600000E308DF80C4005F005F84B4B9DF800205E
:104610005A729DF801209A729DF80220DA729DF874
:1046200008201A739DF809205A739DF80A209A737E
:104630008C225A76A5221C705C709C70DC701C71F8
:104640005C719C71DC711C72DD731C745C749D74F4
:10465000DC741C755D759C75DC751D769C761A770F
:10466000DA7783F82220802283F82A2083F82B200F
:1046700083F82C2083F82D2083F82E2083F82F2018
:10468000DD765C779D7783F8204083F8215083F8AE
:10469000234083F8245083F8255083F8264083F87C
:1046A000275083F8285083F8294000F0D9FB234B8A
:1046B000234D18602348FCF72FFB05F11802314603
:1046C0002846FCF793FB204B2B6000220023C5E912
:1046D0000823314608F5A2524046AC62FCF786FB3F
:1046E0001A4BC8F800301A4BC8F8183441F23C4352
:1046F000184D08F8034041F23D4308F5A250224608
:1047000008F803404FF480613346043008F03AFE65
:104710002846C5F800A0C5F804802C726C72EC60C5
:104720002C7402F0ECF90C4A0C49284609F006FCFE
:1047300005B0BDE8F08F00BF30C3FF1FA86CFF1F9E
:10474000D06FFF1FD07BFF1F48F1000030F1000049
:10475000CCE700003833FF1F0C13FF1FD107000008
:10476000F0B5374A374B11680906FCD4196811F0C7
:104770008001F8D172B634480378002B5DD0334BFA
:10478000334A1F6804330C321B6852F80C6C52F821
:10479000085C52F8044C12683B4433442B442344D5
:1047A0001344C3F34E032B4A43F4004313602A4BD4
:1047B0001F68043340321B6852F80C6C52F8085CD6
:1047C00052F8044C12683B4433442B4423441344B2
:1047D000C3F34E03214A43F400431360204B02F518
:1047E00000221F68043310321B68166855689468ED
:1047F0003B440C32334412682B4423441344C3F328
:104800004E03184A43F400431360174B1F680433E8
:1048100040321B6852F80C6C52F8085C52F8044C99
:1048200012683B4433442B4423441344C3F34E03E4
:104830000E4A43F400431360017062B6F0BD00BF3E
:1048400024B0034024B00B4062C3FF1F38B00340C4
:1048500040B003402CB0034058B0034030B0034098
:1048600038B00B402CB00B4058B00B4030B00B4070
:1048700010B5224B2248234960221A70E1225A7057
:10488000214B224A1C78224B082C01D1212402E022
:104890000A2C03D139240460132005E00C2C0CBF32
:1048A00035245D2404601220086014601860194BE0
:1048B0001A78194B02B101221A60184B1A78184B5A
:1048C00002B101221A60174B174A1978174B0129B8
:1048D00001D880210BE0042901D8842107E00829B0
:1048E00001D8852103E0102994BF8621872111601A
:1048F00019600F4B01221A7010BD00BF0040074025
:1049000008B003400CB003405E14FF1F08B00B401A
:104910000CB00B4065C3FF1F20B0034060C3FF1FF6
:1049200020B00B405F14FF1F24B0034024B00B40A5
:1049300062C3FF1F0E4B1A7818B122B901221A70F8
:1049400001E002B118700B4B1A7819B122B901229B
:104950001A7001E002B11970074B1B782BB1074A9E
:104960000023136002F500221360FFF781BF00BF30
:1049700065C3FF1F60C3FF1F62C3FF1F24B0034056
:104980000C2804D9102828BF1020102307E00A287B
:1049900004D808288CBF0A23082300E00C230A4A05
:1049A000D9B2081A1070094A107883420BD0084B0C
:1049B00011701B782BB1074A0023136002F5002207
:1049C0001360FFF755BF704761C3FF1F5E14FF1FE1
:1049D00062C3FF1F24B0034010B5144B1B7804467C
:1049E0000BB1FFF7BDFE012C114A02D80023136062
:1049F00018E0042C0F4903D8042313600B6011E066
:104A0000082C04D8052313600B6008230AE0102C3F
:104A100095BF062307231360136095BF0B600B60DF
:104A200010232023044A137010BD00BF62C3FF1F70
:104A300024B0034024B00B405F14FF1F47282DE92A
:104A4000F04150D8294B1C5CFF2C4CD0284B1B78D4
:104A50000BB1FFF785FE210617D472B6254E264FFF
:104A6000346001233B7062B6234D72B633681A0678
:104A700004D5224B00221B682A7026E02B78002BDD
:104A8000EED062B602F0DCFBEFE772B61C4EDFF848
:104A9000808004F04007FFB204F03F05336817B18F
:104AA00023F0100301E043F01003164C33600123A0
:104AB000C8F80050237062B672B6D8F800301B06F2
:104AC0000AD5114B00221B68227062B60F4A10787B
:104AD00043FA00F0BDE8F0812378002BDED062B607
:104AE00002F0AEFBE8E70020BDE8F081F4E400004E
:104AF00062C3FF1F00B0034064C3FF1F10B0034038
:104B00000CB00B4063C3FF1F10B00B4061C3FF1F0D
:104B100000B00B4008B50B4D2C462B68580301D54F
:104B200000F072FF2368590501D500F06BFB236884
:104B30001A0501D500F0F4FB2368DB04EDD500F085
:104B40007DFCEAE73480044008B5FFF7E3FFFFFF90
:104B5000014B10221A807047002005407047FFFF6C
:104B6000094908B50B6868B16A461844A2F50052B5
:104B7000904206D309F0F6F90C2303604FF0FF30A2
:104B800008BD0860184608BD6014FF1FFEE70078E6
:104B9000B0FA80F040097047012303707047FFFFAF
:104BA000EFF31380A8B9EFF31082A2B9EFF30583F6
:104BB00023B10F2B05D9084A985C03E04FF48070AD
:104BC00000E01046EFF311832BB1984228BF18463E
:104BD00070474FF0FF307047F0E300E0094B1A7860
:104BE000802A0DD1084A0949116002F5573202F2B4
:104BF000BD32002111701A78802AFCD00120704744
:104C00000020704703E00740448004400000282251
:104C1000094B1A78012A0DD102F1804202F5FC22DB
:104C2000602111701A78802AFCD1044B044A1A6062
:104C3000012070470020704703E007404480044093
:104C40000000060230B503460020B3FBF2F402FB7D
:104C50001433092B94BF30333733DBB20B54234664
:104C60000CB10130F1E70A1823465470C41AA3426C
:104C700006DACC5C1578CD5402F801490133F5E72A
:104C8000084630BD7047FFFF00F14040A0F5922379
:104C90007C2B12D9A0F594237C2B10D9A0F5962358
:104CA0007C2B0ED9A0F598237C2B0CD9A0F59A204B
:104CB0007C28064888BF0020704705487047054893
:104CC0007047054870470548704700BFAC15FF1F87
:104CD0006414FF1FDC14FF1F3C15FF1F6C15FF1F22
:104CE000044B054900221A600A60044A1060102231
:104CF0001A60704714D0034004D0034000D0034032
:104D00003F2810B518D80D4B53F8302092F8804248
:104D10003CB1012311B182F8803010BD82F800311E
:104D200010BD03EBC0035B681A6811B142F00302C7
:104D300001E022F002021A6010BD00BF3CE5000055
:104D40003F289FBF044B53F8303093F80002C0B2A5
:104D500088BF0020704700BF3CE500003F2810B529
:104D60002BD8164A02EBC00301295B68144601D018
:104D700004290FD154F83020012082F880024FF42A
:104D8000A2721A601A6804290CBF42F0200222F0B5
:104D9000200211E052F83000002280F8802211B980
:104DA0004FF4807208E0022902D140F2031203E0BE
:104DB000032908BF4FF481721A6010BD3CE5000062
:104DC0003F2870B50E463CD8042A3AD8DFE802F0F6
:104DD000070905030B00092306E00A2304E0082362
:104DE00002E00C2300E00B231D04164B03EBC00371
:104DF0005C68216811F4E06101D1FFF7AFFF124B4D
:104E0000124AC3F82C21124AC3F83021114AC3F8C0
:104E10003421114AC3F838212046104AC3F83C21F6
:104E2000FFF732FF68B172B6226822F47022226066
:104E300042F08073C4F384022B4340F82260236065
:104E400062B670BD3CE50000000CFF1FE112FF1FC1
:104E5000B512FF1F8912FF1F5D12FF1F3112FF1FC6
:104E600072B60C4B0C4A0D491B681268096862B691
:104E7000490102D5322B88BF0132C3F52F33B4204C
:104E800003F21F33B3FBF0F34FF47A7000FB0230F0
:104E9000704700BF18E000E068C3FF1F04ED00E0AA
:104EA00038B50446FFF7DCFF054624B938BD013CA0
:104EB0000AD005F57A75FFF7D3FF401BB0F57A7F6E
:104EC000F5D202F0BDF9F6E738BDFFFF374B3849A0
:104ED0004FF0006270B51A604FF080521A604FF0C8
:104EE00000521A604FF080421A604FF000421A6080
:104EF000304B314D314C324E00224EF6FF701A606D
:104F0000586028230B608B600B618B610B628B6296
:104F10000B638B63103101F501212B6023600B6063
:104F20008B600B618B610B628B620921316006F52E
:104F30008056043632607060B360336146F8041CFA
:104F400006F5FE2632607060B360336146F8041CDB
:104F500006F58056326070601A482B60236001604D
:104F6000A0F5E120A0F2D470016841F40071016065
:104F700050F8281C41F0007140F8281C12490A60C2
:104F8000124A47F6FF7111605360D360104B08223C
:104F90001A60FFF76DFC1920FFF782FF01F0CCFAD1
:104FA00040F21310BDE87040FFF77ABF04E100E063
:104FB0000C800340048003400C900B4014900B4085
:104FC0000080034000900B4004900C4008900C407F
:104FD00000900C402A4A136843F480631360294A06
:104FE00000231370284A1370284A1370284A13703C
:104FF000284A1370284B1B78152B06D01B2B08D082
:105000005BB940F21332254B06E040F21332244BD9
:1050100002E0244B40F213321A60234B1B78052B1D
:1050200007D01A2B09D0012B0BD14FF451721F4B13
:1050300006E04FF451721E4B02E01E4B4FF45172CA
:105040001A601F281C4B98BF2020C0F344321A70EE
:10505000C0F347125A7000F01F0004220221987218
:105060009A70D9745A7588221A743C22DA70134BDC
:1050700040221A70A3F21F334FF000421A607047AB
:1050800034800440F3C3FF1F71C3FF1FFCC3FF1F25
:10509000F4C3FF1F70C3FF1FB2C3FF1F40A0044033
:1050A00018C004403C9004401816FF1F44A0044060
:1050B0001CC004403890044000A006401FE400E0FB
:1050C00010B509B140F08000194A1378984214468F
:1050D0002DD0184A1268520528D503F07F03052BFE
:1050E00006D01A2B07D0012B08D10022124B04E066
:1050F0000022124B01E0124B00221A60002900F03E
:105100007F0214BF60234423052A07D01A2A09D03E
:10511000012A0BD143F44073074A06E043F440737D
:10512000064A02E0064A43F440731360207010BD43
:105130001816FF1F3480044044A004401CC00440E3
:10514000389004402DE9F8431F4B1B685A0506466A
:1051500037D51E4B1B680BB101221A701C4DDFF8AE
:1051600080902C781B4F0134402C28BF0024C84667
:1051700099F80030A34219D1FFF712FD402810DC46
:105180003B791B06F4D599F80030134A0133402BC4
:1051900028BF0023D25CDBB2D2B2FA7188F80030AB
:1051A000E6E7FF28E4DD02F04BF8E1E70A4BF6B250
:1051B0001E550A4B01221A70064BE4B2BC222C7019
:1051C000DA70BDE8F88300BF34800440F8C3FF1FE5
:1051D000FCC3FF1F00A0064072C3FF1F70C3FF1F68
:1051E000F4C3FF1F054B1878054B1A78C0B2D3B231
:1051F000984238BF4030C01A704700BFF3C3FF1F4A
:1052000071C3FF1FF0B534490B7913F0300F2FD065
:1052100072B68B7D03F0FF0423B9CB7940234B7426
:1052200062B625E062B62D482D4A037812782D4FDC
:10523000DBB2D2B20546581C4028CE7928BF0020E8
:105240009042F6B21CBF3E540346601E10F0FF04AD
:10525000F1D1D9B229702449096849B1934236BFC6
:10526000C2F140029B1A9B18272BC4BF01230B706D
:10527000194AD178C9B20D061ED513791C061BD563
:105280001A4B1B481D7803781A4EEDB2DBB2AB42C5
:105290000AD00133402B28BF00231479F45CE4B218
:1052A000D471147D072CF2D9DBB203700A4B1A7942
:1052B000100644BF7C22DA7049060CD5064B1A79D9
:1052C000520608D50C4A002111700C4A126802B12E
:1052D00011703C22DA70F0BD00A00640F3C3FF1F3E
:1052E00071C3FF1FB3C3FF1F6CC3FF1FFCC3FF1FAE
:1052F000F4C3FF1F72C3FF1F70C3FF1FF8C3FF1F5C
:10530000054B1878054B1A78C0B2D3B2984238BF13
:105310004030C01A704700BF6EC4FF1F05C4FF1F96
:10532000F0B534490B7913F0300F2FD072B68B7D66
:1053300003F0FF0423B9CB7940234B7462B625E018
:1053400062B62D482D4A037812782D4FDBB2D2B2C7
:105350000546581C4028CE7928BF00209042F6B25E
:105360001CBF3E540346601E10F0FF04F1D1D9B2B9
:1053700029702449096849B1934236BFC2F14002FD
:105380009B1A9B18272BC4BF01230B70194AD17895
:10539000C9B20D061ED513791C061BD51A4B1B4826
:1053A0001D7803781A4EEDB2DBB2AB420AD001335E
:1053B000282B28BF00231479F45CE4B2D471147D47
:1053C000072CF2D9DBB203700A4B1A79100644BFDE
:1053D0007C22DA7049060CD5064B1A79520608D59C
:1053E0000C4A002111700C4A126802B111703C2263
:1053F000DA70F0BD00B006406EC4FF1F05C4FF1F89
:105400002EC4FF1F00C4FF1F74C4FF1F6FC4FF1F03
:1054100006C4FF1F04C4FF1F70C4FF1F054B18788C
:10542000054B1A78C0B2D3B2984238BF4030C01A88
:10543000704700BFE6C4FF1F7DC4FF1F10B5284B97
:105440001A79920620D52749DA790B782648013354
:1054500000783F2BC8BF0023834218BF2348D2B235
:105460001EBFC254DAB20A70214A116861B1214AE2
:105470001278D2B2934236BFC2F140029B1A9B18F7
:10548000272BC4BF01230B701549CA78D2B214066A
:1054900016D50B79180613D5174B164C18782378A8
:1054A000DBB2984202D16C23CB7009E00133282B88
:1054B00028BF00231148C05CDBB2C0B2C8712370A2
:1054C00051060CD5064B1A79520608D50C4A002114
:1054D00011700C4A126802B111702C22DA7010BDE2
:1054E00000C00640E6C4FF1F7DC4FF1FA6C4FF1F07
:1054F00078C4FF1FE7C4FF1FECC4FF1F7EC4FF1F5B
:105500007CC4FF1FE8C4FF1F054B1878054B1A78B1
:10551000C0B2D3B2984238BF4030C01A704700BF03
:105520005EC5FF1FF5C4FF1F10B5284B1A79920600
:1055300020D52749DA790B782648013300783F2BAC
:10554000C8BF0023834218BF2348D2B21EBFC25433
:10555000DAB20A70214A116861B1214A1278D2B2D6
:10556000934236BFC2F140029B1A9B18272BC4BF3F
:1055700001230B701549CA78D2B2140616D50B79DF
:10558000180613D5174B164C18782378DBB29842BF
:1055900002D16C23CB7009E00133282B28BF0023F4
:1055A0001148C05CDBB2C0B2C871237051060CD583
:1055B000064B1A79520608D50C4A002111700C4A84
:1055C000126802B111702C22DA7010BD00D00640B2
:1055D0005EC5FF1FF5C4FF1F1EC5FF1FF0C4FF1FE0
:1055E0005FC5FF1F64C5FF1FF6C4FF1FF4C4FF1F84
:1055F00060C5FF1F054B1878054B1A78C0B2D3B2AF
:10560000984238BF4030C01A704700BFD6C5FF1F50
:105610006DC5FF1F10B5284B1A79920620D5274972
:10562000DA790B782648013300783F2BC8BF002376
:10563000834218BF2348D2B21EBFC254DAB20A70E6
:10564000214A116861B1214A1278D2B2934236BF21
:10565000C2F140029B1A9B18272BC4BF01230B7079
:105660001549CA78D2B2140616D50B79180613D587
:10567000174B164C18782378DBB2984202D16C2372
:10568000CB7009E00133282B28BF00231148C05CF0
:10569000DBB2C0B2C871237051060CD5064B1A7923
:1056A000520608D50C4A002111700C4A126802B14A
:1056B00011702C22DA7010BD00A00E40D6C5FF1F5D
:1056C0006DC5FF1F96C5FF1F68C5FF1FD7C5FF1F0C
:1056D000DCC5FF1F6EC5FF1F6CC5FF1FD8C5FF1FB0
:1056E000054B1878054B1A78C0B2D3B2984238BF30
:1056F0004030C01A704700BF4EC6FF1FE5C5FF1FF0
:1057000010B5294B5A6892021FD52849DA680B78E0
:10571000274801333F2B0078C8BF0023834204D0C1
:105720002448D2B2C254DAB20A70234A116861B175
:10573000224A1278D2B2934236BFC2F140029B1A7B
:105740009B18272BC4BF01230B70174A90680402D3
:105750001AD55368190217D5194B184C19782378A4
:10576000DBB2994206D1174B00221A60012243F89E
:10577000042C09E00133282B28BF00231249C95CFF
:10578000DBB2C9B2D160237042020CD5064B5B6814
:105790005B0208D50D4A002313700D4A126802B14E
:1057A00013700C4A136010BD00400C404EC6FF1F22
:1057B000E5C5FF1F0EC6FF1FE0C5FF1F4FC6FF1F39
:1057C00054C6FF1F5C018843E6C5FF1FE4C5FF1FE9
:1057D00050C6FF1F5801884330B585B072B6FFF739
:1057E000FDF9154B154970221A70154A1160802277
:1057F0001A701A781206FCD5124B1C68FFF708FACB
:1058000062B6114B9C429CBF0A235C4301AD0A2245
:1058100029462046FFF716FA0C4A0023E95C21B11D
:1058200001330A2B22F8021BF8D1094A01335B002D
:10583000137005B030BD00BF0000024000000741FA
:10584000040002400C0002407F969800A416FF1F3F
:10585000A216FF1F431E032B14D872B60A4951F833
:10586000230068B170B4094C058834F813204668E9
:1058700041F82360521B24F8132062B670BC7047B5
:1058800062B6704700207047B0C6FF1F50CEFF1FA2
:10589000013803280BD872B6074B53F8203043B1B8
:1058A00000205B680130002BFBD162B670470020FE
:1058B00070471846F9E700BF04C7FF1F30B472B63F
:1058C0002B4A13781D0706D52A4B196A002936D0B2
:1058D000996A002941D053781C0706D5254B196CCD
:1058E00000293ED0996C002939D09378190705D545
:1058F000204B196E002936D0996E89B1D3781B07D9
:1059000007D51C4BD3F880207AB3D3F88820112117
:105910003AB162B6184B00221A7030BC00F0AABE31
:105920000D21154C154D227843F8315003EBC1037E
:105930000830013A5860227062B630BC70470422C9
:105940000D4C0F4D217843F8325003EBC203083061
:105950004A1E5860227062B6EFE70521E1E709218F
:10596000DFE70822ECE70C22EAE71022E8E700BFB5
:105970003CE700000000FF1F2DC7FF1FC8004000CC
:1059800088004000431E032B1DD81B4A400140F0F5
:10599000100030B4104472B6184CE25C032A1BD8D5
:1059A000DFE802F00212151703220D88E25410F00E
:1059B000080F14BFC823882343EA05430831036056
:1059C000416062B630BC704708300222EDE7052224
:1059D000EBE708300422E8E7094A52F8230038B11F
:1059E000084A52F82300416042F8231062B6E9E702
:1059F00042F82310034AF7E70000FF1F3CC7FF1FD0
:105A000004C7FF1F14C7FF1F2DE9F04FB54CB64E5A
:105A100087B046E0B54F4FEA930B07EBCB08013D4B
:105A2000D8F8041003F00803EDB2A1F1080003F068
:105A3000FF02002B40F0108157F83B301B0C1FFA7F
:105A400083FE21F808EC002B00F0FD80A84B21F824
:105A5000062C41F8042C53F82520002A00F0DF82A0
:105A6000DFF8CCA25AF825305860DFF8C8924AF81F
:105A7000250039F815309E4429F815E000F0DCFDCA
:105A8000002800F0C5829B499B4B18F0080F00F1DD
:105A9000080018BF0B46C8F8040047F83B3008233D
:105AA00023702578EDB2690719D5944B1B78A3B103
:105AB00093490A7802F0FF0322B1013BDBB20B707D
:105AC00003B900BE8F490A7802F0FF032AB1013BF7
:105AD000DBB20B70002B00F071820423237005F001
